:020000040000fa
:080000000002040000000000f2
:020000040000fa
:04000800520300009f
:020000040000fa
:04000c00520300009b
:020000040000fa
:040010005203000097
:020000040000fa
:040014005203000093
:020000040000fa
:04001800520300008f
:020000040000fa
:04001c00520300008b
:020000040000fa
:040020005203000087
:020000040000fa
:040024005203000083
:020000040000fa
:04002800520300007f
:020000040000fa
:04002c00fa020000d4
:020000040000fa
:040030005203000077
:020000040000fa
:040034005203000073
:020000040000fa
:04003800520300006f
:020000040000fa
:04003c00520300006b
:020000040000fa
:040040005203000067
:020000040000fa
:040044005203000063
:020000040000fa
:04004800520300005f
:020000040000fa
:04004c00520300005b
:020000040000fa
:040050005203000057
:020000040000fa
:040054005203000053
:020000040000fa
:04005800520300004f
:020000040000fa
:04005c00520300004b
:020000040000fa
:040060005203000047
:020000040000fa
:040064005203000043
:020000040000fa
:04006800520300003f
:020000040000fa
:04006c00520300003b
:020000040000fa
:040070005203000037
:020000040000fa
:040074005203000033
:020000040000fa
:04007800520300002f
:020000040000fa
:04007c00520300002b
:020000040000fa
:040080005203000027
:020000040000fa
:040084005203000023
:020000040000fa
:04008800520300001f
:020000040000fa
:04008c00520300001b
:020000040000fa
:040090005203000017
:020000040000fa
:040094005203000013
:020000040000fa
:04009800520300000f
:020000040000fa
:04009c00520300000b
:020000040000fa
:0400a0005203000007
:020000040000fa
:0400a4005203000003
:020000040000fa
:0400a80052030000ff
:020000040000fa
:0400ac0052030000fb
:020000040000fa
:0400b00052030000f7
:020000040000fa
:0400b40052030000f3
:020000040000fa
:0400b80052030000ef
:020000040000fa
:0400bc0052030000eb
:020000040000fa
:0400c00052030000e7
:020000040000fa
:0400c40052030000e3
:020000040000fa
:0400c80052030000df
:020000040000fa
:0400cc0052030000db
:020000040000fa
:0400d00052030000d7
:020000040000fa
:0400d40052030000d3
:020000040000fa
:0400d80052030000cf
:020000040000fa
:0400dc0052030000cb
:020000040000fa
:0400e00052030000c7
:020000040000fa
:0400e40052030000c3
:020000040000fa
:0400e80052030000bf
:020000040000fa
:0400ec0052030000bb
:020000040000fa
:0400f00052030000b7
:020000040000fa
:0400f40052030000b3
:020000040000fa
:0400f80052030000af
:020000040000fa
:0400fc0052030000ab
:020000040000fa
:0401000052030000a6
:020000040000fa
:0401040052030000a2
:020000040000fa
:04010800520300009e
:020000040000fa
:04010c00520300009a
:020000040000fa
:040110005203000096
:020000040000fa
:040114005203000092
:020000040000fa
:04011800520300008e
:020000040000fa
:04011c00520300008a
:020000040000fa
:040120005203000086
:020000040000fa
:040124005203000082
:020000040000fa
:04012800520300007e
:020000040000fa
:04012c00520300007a
:020000040000fa
:040130005203000076
:020000040000fa
:040134005203000072
:020000040000fa
:04013800520300006e
:020000040000fa
:04013c00520300006a
:020000040000fa
:040140005203000066
:020000040000fa
:040144005203000062
:020000040000fa
:04014800520300005e
:020000040000fa
:04014c00520300005a
:020000040000fa
:040150005203000056
:020000040000fa
:040154005203000052
:020000040000fa
:04015800520300004e
:020000040000fa
:04015c00520300004a
:020000040000fa
:040160005203000046
:020000040000fa
:040164005203000042
:020000040000fa
:04016800520300003e
:020000040000fa
:04016c00520300003a
:020000040000fa
:040170005203000036
:020000040000fa
:040174005203000032
:020000040000fa
:04017800520300002e
:020000040000fa
:04017c00520300002a
:020000040000fa
:040180005203000026
:020000040000fa
:040184005203000022
:020000040000fa
:04018800520300001e
:020000040000fa
:04018c00520300001a
:020000040000fa
:040190005203000016
:020000040000fa
:040194005203000012
:020000040000fa
:04019800520300000e
:020000040000fa
:04019c00520300000a
:020000040000fa
:0401a0005203000006
:020000040000fa
:0401a4005203000002
:020000040000fa
:0401a80052030000fe
:020000040000fa
:0401ac0052030000fa
:020000040000fa
:0401b00052030000f6
:020000040000fa
:0401b40052030000f2
:020000040000fa
:0401b80052030000ee
:020000040000fa
:0401bc0052030000ea
:020000040000fa
:0401c00052030000e6
:020000040000fa
:0401c40052030000e2
:020000040000fa
:0401c80052030000de
:020000040000fa
:0401cc0052030000da
:020000040000fa
:0401d00052030000d6
:020000040000fa
:0401d40052030000d2
:020000040000fa
:0401d80052030000ce
:020000040000fa
:0401dc0052030000ca
:020000040000fa
:0401e00052030000c6
:020000040000fa
:0401e40052030000c2
:020000040000fa
:0401e80052030000be
:020000040000fa
:0401ec0052030000ba
:020000040000fa
:0401f00052030000b6
:020000040000fa
:0401f40052030000b2
:020000040000fa
:0401f80052030000ae
:020000040000fa
:0401fc0052030000aa
:020000040000fa
:0402000052030000a5
:020000040000fa
:0402040052030000a1
:020000040000fa
:04020800520300009d
:020000040000fa
:04020c005203000099
:020000040000fa
:040210005203000095
:020000040000fa
:040214005203000091
:020000040000fa
:04021800520300008d
:020000040000fa
:04021c005203000089
:020000040000fa
:040220005203000085
:020000040000fa
:040224005203000081
:020000040000fa
:04022800520300007d
:020000040000fa
:04022c005203000079
:020000040000fa
:040230005203000075
:020000040000fa
:040234005203000071
:020000040000fa
:04023800520300006d
:020000040000fa
:04023c005203000069
:020000040000fa
:040240005203000065
:020000040000fa
:040244005203000061
:020000040000fa
:04024800520300005d
:020000040000fa
:04024c005203000059
:020000040000fa
:040250005203000055
:020000040000fa
:040254005203000051
:020000040000fa
:04025800520300004d
:020000040000fa
:04025c005203000049
:020000040000fa
:040260005203000045
:020000040000fa
:040264005203000041
:020000040000fa
:04026800520300003d
:020000040000fa
:04026c005203000039
:020000040000fa
:040270005203000035
:020000040000fa
:040274005203000031
:020000040000fa
:04027800520300002d
:020000040000fa
:04027c005203000029
:020000040000fa
:040280005203000025
:020000040000fa
:040284005203000021
:020000040000fa
:04028800520300001d
:020000040000fa
:04028c005203000019
:020000040000fa
:040290005203000015
:020000040000fa
:040294005203000011
:020000040000fa
:04029800520300000d
:020000040000fa
:04029c005203000009
:020000040000fa
:0402a0005203000005
:020000040000fa
:0402a4005203000001
:020000040000fa
:0402a80052030000fd
:020000040000fa
:0402ac0052030000f9
:020000040000fa
:0402b00052030000f5
:020000040000fa
:0402b40052030000f1
:020000040000fa
:0402b80052030000ed
:020000040000fa
:0402bc0052030000e9
:020000040000fa
:0402c00052030000e5
:020000040000fa
:0402c40052030000e1
:020000040000fa
:0402c80052030000dd
:020000040000fa
:0402cc0052030000d9
:020000040000fa
:0402d00052030000d5
:020000040000fa
:0402d40052030000d1
:020000040000fa
:0402d80052030000cd
:020000040000fa
:0402dc0052030000c9
:020000040000fa
:0402e00052030000c5
:020000040000fa
:0402e40052030000c1
:020000040000fa
:0402e80052030000bd
:020000040000fa
:0402ec0052030000b9
:020000040000fa
:0402f00052030000b5
:020000040000fa
:0402f40052030000b1
:020000040000fa
:0402f80052030000ad
:020000040000fa
:0402fc0052030000a9
:020000040000fa
:0403000052030000a4
:020000040000fa
:0403040052030000a0
:020000040000fa
:04030800520300009c
:020000040000fa
:04030c005203000098
:020000040000fa
:040310005203000094
:020000040000fa
:040314005203000090
:020000040000fa
:04031800520300008c
:020000040000fa
:04031c005203000088
:020000040000fa
:040320005203000084
:020000040000fa
:040324005203000080
:020000040000fa
:04032800520300007c
:020000040000fa
:04032c005203000078
:020000040000fa
:040330005203000074
:020000040000fa
:040334005203000070
:020000040000fa
:100400004f0021000eff26000e01880000000000b2
:10041000000020000000e000020032000001200087
:100420002002880014000700a00007000000e00080
:1004300003003a0060402000010020000200370065
:100440000000200001002000810f70000100320038
:100450000f000700000020000000e0000200320052
:1004600000000200000000006c0302000000000019
:100470000040da000000fe00200020000000e00044
:1004800002003200100020009001880000000600e9
:10049000a1028800800478000000eb001f003700f4
:1004a000e284440054a0b4009905ba00e2844400f8
:1004b00054a0b4009906ba00e284440054a0b400e9
:1004c0000006eb00476fde00fd07b200ae018800ba
:1004d000636ce10003003a000ad801000000eb0061
:1004e0000e003700606ce10008003a00004deb00a0
:1004f0000a05e800020039003420ec000af0a000f0
:100500008b05e900f9ff3e00040037006168e10057
:10051000010032000086eb000b00070019c7ba008b
:100520001905ba000e04e00003003a000a00e000da
:10053000dbff3a0000000600fe07b200ae028800b2
:100540008a047800f5ff37000cd0a300e20f4d00bd
:100550001c00390089027800354dba000a05e80010
:10056000020039003420ec000af0a0008b05e900fd
:100570000f003200254dba000a05e80002003900dc
:100580003420ec000af0a0008b05e90008003200de
:100590000c00e0000600320015cdba000a05e800a4
:1005a000020039003420ec000af0a0008b05e900bd
:1005b0008984e80054a0b4000b00e000e2ff3a0098
:1005c000000006009902ba00055d78008b05e9007d
:1005d000f7ff3200c82ade00055d78008b05e900d0
:1005e000f3ff32000c00e000f1ff320019ddba0029
:1005f000eeff3700809fbe000000fa000080800000
:10060000e20f500003003a005b4ea9005b6ea800a9
:100610001800370000808000e40f500003003a000b
:100620005b6ea9003e6ea8001200370000808000bb
:10063000e60f500003003a003e6ea9003ecea8002f
:100640000c00370000808000e80f500003003a00e3
:100650003ecea9003e4ea800060037000080800074
:10066000ea0f500003003a003e4ea9005b4ea8007e
:100670000030ef000180800010808000008040008a
:100680000080880000808000ea0f500001003400e4
:100690000030ef000028a9000080fa004f00be00e3
:1006a000004006000040da000000fe0000000500e7
:020000040000fa
:1006b0000000fa005b4ea9005b6ea9003ecea900c7
:1006c0003e4ea9003e4ea900a0ff2f0000808800ea
:1006d0000080fa00000006000000fa00574ea90052
:1006e000576ea9003a6ea9003acea9003a4ea90069
:1006f0003b8ea9001feea9001faea8003b2ea8004c
:100700003b0ea8000021ef0001088000000320003c
:1007100001007000000888000108800000302000ff
:1007200001007000000888000021a8000421ef00eb
:1007300000f0220040088800c3e8a8002028a80094
:1007400001e1a8003f8ea90023eea90003003700b5
:10075000000000000100370000000000017180006f
:1007600000002200008060000000e0000300320072
:1007700020002000108088000200370010002000b8
:1007800010808800e171800000102000008060006f
:100790000000e0000c003200e17180000020200029
:1007a000008060000000e00007003a0023eea8008f
:1007b00000000000008080000000e000fdff350028
:1007c000bbff0700dfff3700e17180000010200051
:1007d000008060000000e000ddff3a00e171800071
:1007e00000202000008060000000e000daff3a00f6
:1007f0003f8ea80000000000008080000000e000a4
:0c080000fdff3500aaff0700ceff370007
:020000040000fa
:10080c000010000002000000800000000210000038
:10081c000200000082000000020000000000000046
:020000040000fa
:020000040005f5
:047e5000deffff0052
:00000001FF
